{
  "_format": "hh-sol-artifact-1",
  "contractName": "MyEpicNFT",
  "sourceName": "contracts/MyEpicNFT.sol",
  "abi": [
    {
      "inputs": [],
      "stateMutability": "nonpayable",
      "type": "constructor"
    },
    {
      "anonymous": false,
      "inputs": [
        {
          "indexed": true,
          "internalType": "address",
          "name": "owner",
          "type": "address"
        },
        {
          "indexed": true,
          "internalType": "address",
          "name": "approved",
          "type": "address"
        },
        {
          "indexed": true,
          "internalType": "uint256",
          "name": "tokenId",
          "type": "uint256"
        }
      ],
      "name": "Approval",
      "type": "event"
    },
    {
      "anonymous": false,
      "inputs": [
        {
          "indexed": true,
          "internalType": "address",
          "name": "owner",
          "type": "address"
        },
        {
          "indexed": true,
          "internalType": "address",
          "name": "operator",
          "type": "address"
        },
        {
          "indexed": false,
          "internalType": "bool",
          "name": "approved",
          "type": "bool"
        }
      ],
      "name": "ApprovalForAll",
      "type": "event"
    },
    {
      "anonymous": false,
      "inputs": [
        {
          "indexed": true,
          "internalType": "address",
          "name": "from",
          "type": "address"
        },
        {
          "indexed": true,
          "internalType": "address",
          "name": "to",
          "type": "address"
        },
        {
          "indexed": true,
          "internalType": "uint256",
          "name": "tokenId",
          "type": "uint256"
        }
      ],
      "name": "Transfer",
      "type": "event"
    },
    {
      "inputs": [
        {
          "internalType": "address",
          "name": "to",
          "type": "address"
        },
        {
          "internalType": "uint256",
          "name": "tokenId",
          "type": "uint256"
        }
      ],
      "name": "approve",
      "outputs": [],
      "stateMutability": "nonpayable",
      "type": "function"
    },
    {
      "inputs": [
        {
          "internalType": "address",
          "name": "owner",
          "type": "address"
        }
      ],
      "name": "balanceOf",
      "outputs": [
        {
          "internalType": "uint256",
          "name": "",
          "type": "uint256"
        }
      ],
      "stateMutability": "view",
      "type": "function"
    },
    {
      "inputs": [
        {
          "internalType": "uint256",
          "name": "tokenId",
          "type": "uint256"
        }
      ],
      "name": "getApproved",
      "outputs": [
        {
          "internalType": "address",
          "name": "",
          "type": "address"
        }
      ],
      "stateMutability": "view",
      "type": "function"
    },
    {
      "inputs": [
        {
          "internalType": "address",
          "name": "owner",
          "type": "address"
        },
        {
          "internalType": "address",
          "name": "operator",
          "type": "address"
        }
      ],
      "name": "isApprovedForAll",
      "outputs": [
        {
          "internalType": "bool",
          "name": "",
          "type": "bool"
        }
      ],
      "stateMutability": "view",
      "type": "function"
    },
    {
      "inputs": [],
      "name": "makeAnEpicNFT",
      "outputs": [],
      "stateMutability": "nonpayable",
      "type": "function"
    },
    {
      "inputs": [],
      "name": "name",
      "outputs": [
        {
          "internalType": "string",
          "name": "",
          "type": "string"
        }
      ],
      "stateMutability": "view",
      "type": "function"
    },
    {
      "inputs": [
        {
          "internalType": "uint256",
          "name": "tokenId",
          "type": "uint256"
        }
      ],
      "name": "ownerOf",
      "outputs": [
        {
          "internalType": "address",
          "name": "",
          "type": "address"
        }
      ],
      "stateMutability": "view",
      "type": "function"
    },
    {
      "inputs": [
        {
          "internalType": "uint256",
          "name": "tokenId",
          "type": "uint256"
        }
      ],
      "name": "pickFirstWord",
      "outputs": [
        {
          "internalType": "string",
          "name": "",
          "type": "string"
        }
      ],
      "stateMutability": "view",
      "type": "function"
    },
    {
      "inputs": [
        {
          "internalType": "uint256",
          "name": "tokenId",
          "type": "uint256"
        }
      ],
      "name": "pickSecondWord",
      "outputs": [
        {
          "internalType": "string",
          "name": "",
          "type": "string"
        }
      ],
      "stateMutability": "view",
      "type": "function"
    },
    {
      "inputs": [
        {
          "internalType": "uint256",
          "name": "tokenId",
          "type": "uint256"
        }
      ],
      "name": "pickThirdWord",
      "outputs": [
        {
          "internalType": "string",
          "name": "",
          "type": "string"
        }
      ],
      "stateMutability": "view",
      "type": "function"
    },
    {
      "inputs": [
        {
          "internalType": "address",
          "name": "from",
          "type": "address"
        },
        {
          "internalType": "address",
          "name": "to",
          "type": "address"
        },
        {
          "internalType": "uint256",
          "name": "tokenId",
          "type": "uint256"
        }
      ],
      "name": "safeTransferFrom",
      "outputs": [],
      "stateMutability": "nonpayable",
      "type": "function"
    },
    {
      "inputs": [
        {
          "internalType": "address",
          "name": "from",
          "type": "address"
        },
        {
          "internalType": "address",
          "name": "to",
          "type": "address"
        },
        {
          "internalType": "uint256",
          "name": "tokenId",
          "type": "uint256"
        },
        {
          "internalType": "bytes",
          "name": "_data",
          "type": "bytes"
        }
      ],
      "name": "safeTransferFrom",
      "outputs": [],
      "stateMutability": "nonpayable",
      "type": "function"
    },
    {
      "inputs": [
        {
          "internalType": "address",
          "name": "operator",
          "type": "address"
        },
        {
          "internalType": "bool",
          "name": "approved",
          "type": "bool"
        }
      ],
      "name": "setApprovalForAll",
      "outputs": [],
      "stateMutability": "nonpayable",
      "type": "function"
    },
    {
      "inputs": [
        {
          "internalType": "bytes4",
          "name": "interfaceId",
          "type": "bytes4"
        }
      ],
      "name": "supportsInterface",
      "outputs": [
        {
          "internalType": "bool",
          "name": "",
          "type": "bool"
        }
      ],
      "stateMutability": "view",
      "type": "function"
    },
    {
      "inputs": [],
      "name": "symbol",
      "outputs": [
        {
          "internalType": "string",
          "name": "",
          "type": "string"
        }
      ],
      "stateMutability": "view",
      "type": "function"
    },
    {
      "inputs": [
        {
          "internalType": "uint256",
          "name": "tokenId",
          "type": "uint256"
        }
      ],
      "name": "tokenURI",
      "outputs": [
        {
          "internalType": "string",
          "name": "",
          "type": "string"
        }
      ],
      "stateMutability": "view",
      "type": "function"
    },
    {
      "inputs": [
        {
          "internalType": "address",
          "name": "from",
          "type": "address"
        },
        {
          "internalType": "address",
          "name": "to",
          "type": "address"
        },
        {
          "internalType": "uint256",
          "name": "tokenId",
          "type": "uint256"
        }
      ],
      "name": "transferFrom",
      "outputs": [],
      "stateMutability": "nonpayable",
      "type": "function"
    }
  ],
  "bytecode": "0x608060405260405180610160016040528061012f81526020016200431061012f913960089080519060200190620000389291906200067e565b506040518060c001604052806040518060400160405280600681526020017f474f4c44454e000000000000000000000000000000000000000000000000000081525081526020016040518060400160405280600781526020017f464f4c44494e470000000000000000000000000000000000000000000000000081525081526020016040518060400160405280600a81526020017f5045524e4943494f55530000000000000000000000000000000000000000000081525081526020016040518060400160405280600781526020017f4c4554545543450000000000000000000000000000000000000000000000000081525081526020016040518060400160405280600781526020017f56414e494c4c410000000000000000000000000000000000000000000000000081525081526020016040518060400160405280600981526020017f43484f434f4c41544500000000000000000000000000000000000000000000008152508152506009906006620001b69291906200070f565b506040518060c001604052806040518060400160405280600781526020017f4241574c494e470000000000000000000000000000000000000000000000000081525081526020016040518060400160405280600781526020017f424f4f5a494e470000000000000000000000000000000000000000000000000081525081526020016040518060400160405280600781526020017f434f50494f55530000000000000000000000000000000000000000000000000081525081526020016040518060400160405280600a81526020017f53454142454152494e470000000000000000000000000000000000000000000081525081526020016040518060400160405280600481526020017f57494e450000000000000000000000000000000000000000000000000000000081525081526020016040518060400160405280600381526020017f4943450000000000000000000000000000000000000000000000000000000000815250815250600a906006620003349291906200070f565b506040518060c001604052806040518060400160405280600881526020017f535452414e47455200000000000000000000000000000000000000000000000081525081526020016040518060400160405280600581526020017f424153494e00000000000000000000000000000000000000000000000000000081525081526020016040518060400160405280600581526020017f4741544f5200000000000000000000000000000000000000000000000000000081525081526020016040518060400160405280600781526020017f54524143544f520000000000000000000000000000000000000000000000000081525081526020016040518060400160405280600481526020017f504143540000000000000000000000000000000000000000000000000000000081525081526020016040518060400160405280600581526020017f435245414d000000000000000000000000000000000000000000000000000000815250815250600b906006620004b29291906200070f565b50348015620004c057600080fd5b506040518060400160405280600981526020017f5371756172654e465400000000000000000000000000000000000000000000008152506040518060400160405280600681526020017f53515541524500000000000000000000000000000000000000000000000000008152508160009080519060200190620005459291906200067e565b5080600190805190602001906200055e9291906200067e565b505050620005ac6040518060400160405280602081526020017f536f727279207468657265206a757374204e4654696e67207468726f75676821815250620005b260201b620010521760201c565b62000930565b6200065281604051602401620005c9919062000844565b6040516020818303038152906040527f41304fac000000000000000000000000000000000000000000000000000000007bffffffffffffffffffffffffffffffffffffffffffffffffffffffff19166020820180517bffffffffffffffffffffffffffffffffffffffffffffffffffffffff83818316178352505050506200065560201b60201c565b50565b60008151905060006a636f6e736f6c652e6c6f679050602083016000808483855afa5050505050565b8280546200068c90620008ba565b90600052602060002090601f016020900481019282620006b05760008555620006fc565b82601f10620006cb57805160ff1916838001178555620006fc565b82800160010185558215620006fc579182015b82811115620006fb578251825591602001919060010190620006de565b5b5090506200070b919062000776565b5090565b82805482825590600052602060002090810192821562000763579160200282015b8281111562000762578251829080519060200190620007519291906200067e565b509160200191906001019062000730565b5b50905062000772919062000795565b5090565b5b808211156200079157600081600090555060010162000777565b5090565b5b80821115620007b95760008181620007af9190620007bd565b5060010162000796565b5090565b508054620007cb90620008ba565b6000825580601f10620007df575062000800565b601f016020900490600052602060002090810190620007ff919062000776565b5b50565b6000620008108262000868565b6200081c818562000873565b93506200082e81856020860162000884565b62000839816200091f565b840191505092915050565b6000602082019050818103600083015262000860818462000803565b905092915050565b600081519050919050565b600082825260208201905092915050565b60005b83811015620008a457808201518184015260208101905062000887565b83811115620008b4576000848401525b50505050565b60006002820490506001821680620008d357607f821691505b60208210811415620008ea57620008e9620008f0565b5b50919050565b7f4e487b7100000000000000000000000000000000000000000000000000000000600052602260045260246000fd5b6000601f19601f8301169050919050565b6139d080620009406000396000f3fe608060405234801561001057600080fd5b506004361061010b5760003560e01c806370a08231116100a2578063c630338611610071578063c6303386146102c8578063c87b56dd146102f8578063de9d132f14610328578063e2d2c30814610332578063e985e9c5146103625761010b565b806370a082311461024257806395d89b4114610272578063a22cb46514610290578063b88d4fde146102ac5761010b565b806323b872dd116100de57806323b872dd146101aa5780633bad0d36146101c657806342842e0e146101f65780636352211e146102125761010b565b806301ffc9a71461011057806306fdde0314610140578063081812fc1461015e578063095ea7b31461018e575b600080fd5b61012a6004803603810190610125919061247e565b610392565b6040516101379190612bbe565b60405180910390f35b610148610474565b6040516101559190612bd9565b60405180910390f35b610178600480360381019061017391906124d0565b610506565b6040516101859190612b57565b60405180910390f35b6101a860048036038101906101a39190612442565b61058b565b005b6101c460048036038101906101bf919061233c565b6106a3565b005b6101e060048036038101906101db91906124d0565b610703565b6040516101ed9190612bd9565b60405180910390f35b610210600480360381019061020b919061233c565b610821565b005b61022c600480360381019061022791906124d0565b610841565b6040516102399190612b57565b60405180910390f35b61025c600480360381019061025791906122d7565b6108f3565b6040516102699190612e39565b60405180910390f35b61027a6109ab565b6040516102879190612bd9565b60405180910390f35b6102aa60048036038101906102a59190612406565b610a3d565b005b6102c660048036038101906102c1919061238b565b610a53565b005b6102e260048036038101906102dd91906124d0565b610ab5565b6040516102ef9190612bd9565b60405180910390f35b610312600480360381019061030d91906124d0565b610bd3565b60405161031f9190612bd9565b60405180910390f35b610330610d25565b005b61034c600480360381019061034791906124d0565b610ea0565b6040516103599190612bd9565b60405180910390f35b61037c60048036038101906103779190612300565b610fbe565b6040516103899190612bbe565b60405180910390f35b60007f80ac58cd000000000000000000000000000000000000000000000000000000007bffffffffffffffffffffffffffffffffffffffffffffffffffffffff1916827bffffffffffffffffffffffffffffffffffffffffffffffffffffffff1916148061045d57507f5b5e139f000000000000000000000000000000000000000000000000000000007bffffffffffffffffffffffffffffffffffffffffffffffffffffffff1916827bffffffffffffffffffffffffffffffffffffffffffffffffffffffff1916145b8061046d575061046c826110eb565b5b9050919050565b606060008054610483906130cd565b80601f01602080910402602001604051908101604052809291908181526020018280546104af906130cd565b80156104fc5780601f106104d1576101008083540402835291602001916104fc565b820191906000526020600020905b8154815290600101906020018083116104df57829003601f168201915b5050505050905090565b600061051182611155565b610550576040517f08c379a000000000000000000000000000000000000000000000000000000000815260040161054790612db9565b60405180910390fd5b6004600083815260200190815260200160002060009054906101000a900473ffffffffffffffffffffffffffffffffffffffff169050919050565b600061059682610841565b90508073ffffffffffffffffffffffffffffffffffffffff168373ffffffffffffffffffffffffffffffffffffffff161415610607576040517f08c379a00000000000000000000000000000000000000000000000000000000081526004016105fe90612df9565b60405180910390fd5b8073ffffffffffffffffffffffffffffffffffffffff166106266111c1565b73ffffffffffffffffffffffffffffffffffffffff16148061065557506106548161064f6111c1565b610fbe565b5b610694576040517f08c379a000000000000000000000000000000000000000000000000000000000815260040161068b90612cf9565b60405180910390fd5b61069e83836111c9565b505050565b6106b46106ae6111c1565b82611282565b6106f3576040517f08c379a00000000000000000000000000000000000000000000000000000000081526004016106ea90612e19565b60405180910390fd5b6106fe838383611360565b505050565b60606000610737610713846115c7565b6040516020016107239190612b13565b604051602081830303815290604052611774565b90506009805490508161074a9190613179565b905060098181548110610786577f4e487b7100000000000000000000000000000000000000000000000000000000600052603260045260246000fd5b90600052602060002001805461079b906130cd565b80601f01602080910402602001604051908101604052809291908181526020018280546107c7906130cd565b80156108145780601f106107e957610100808354040283529160200191610814565b820191906000526020600020905b8154815290600101906020018083116107f757829003601f168201915b5050505050915050919050565b61083c83838360405180602001604052806000815250610a53565b505050565b6000806002600084815260200190815260200160002060009054906101000a900473ffffffffffffffffffffffffffffffffffffffff169050600073ffffffffffffffffffffffffffffffffffffffff168173ffffffffffffffffffffffffffffffffffffffff1614156108ea576040517f08c379a00000000000000000000000000000000000000000000000000000000081526004016108e190612d39565b60405180910390fd5b80915050919050565b60008073ffffffffffffffffffffffffffffffffffffffff168273ffffffffffffffffffffffffffffffffffffffff161415610964576040517f08c379a000000000000000000000000000000000000000000000000000000000815260040161095b90612d19565b60405180910390fd5b600360008373ffffffffffffffffffffffffffffffffffffffff1673ffffffffffffffffffffffffffffffffffffffff168152602001908152602001600020549050919050565b6060600180546109ba906130cd565b80601f01602080910402602001604051908101604052809291908181526020018280546109e6906130cd565b8015610a335780601f10610a0857610100808354040283529160200191610a33565b820191906000526020600020905b815481529060010190602001808311610a1657829003601f168201915b5050505050905090565b610a4f610a486111c1565b83836117a7565b5050565b610a64610a5e6111c1565b83611282565b610aa3576040517f08c379a0000000000000000000000000000000000000000000000000000000008152600401610a9a90612e19565b60405180910390fd5b610aaf84848484611914565b50505050565b60606000610ae9610ac5846115c7565b604051602001610ad59190612aac565b604051602081830303815290604052611774565b9050600a8054905081610afc9190613179565b9050600a8181548110610b38577f4e487b7100000000000000000000000000000000000000000000000000000000600052603260045260246000fd5b906000526020600020018054610b4d906130cd565b80601f0160208091040260200160405190810160405280929190818152602001828054610b79906130cd565b8015610bc65780601f10610b9b57610100808354040283529160200191610bc6565b820191906000526020600020905b815481529060010190602001808311610ba957829003601f168201915b5050505050915050919050565b6060610bde82611155565b610c1d576040517f08c379a0000000000000000000000000000000000000000000000000000000008152600401610c1490612d99565b60405180910390fd5b6000600660008481526020019081526020016000208054610c3d906130cd565b80601f0160208091040260200160405190810160405280929190818152602001828054610c69906130cd565b8015610cb65780601f10610c8b57610100808354040283529160200191610cb6565b820191906000526020600020905b815481529060010190602001808311610c9957829003601f168201915b505050505090506000610cc7611970565b9050600081511415610cdd578192505050610d20565b600082511115610d12578082604051602001610cfa9291906129ca565b60405160208183030381529060405292505050610d20565b610d1b84611987565b925050505b919050565b6000610d316007611a2e565b90506000610d3e82610703565b90506000610d4b83610703565b90506000610d5884610703565b90506000838383604051602001610d71939291906129ee565b604051602081830303815290604052905060006008858585604051602001610d9c9493929190612a1f565b60405160208183030381529060405290506000610de183610dbc84611a3c565b604051602001610dcd929190612ace565b604051602081830303815290604052611a3c565b9050610ded3388611bfa565b600081604051602001610e009190612b35565b6040516020818303038152906040529050610e3981604051602001610e259190612a68565b604051602081830303815290604052611052565b610e438882611c18565b610e836040518060400160405280601781526020017f4e465420257320776173206d696e74656420746f2025730000000000000000008152508933611c8c565b610e8c81611052565b610e966007611d2b565b5050505050505050565b60606000610ed4610eb0846115c7565b604051602001610ec09190612a8a565b604051602081830303815290604052611774565b9050600b8054905081610ee79190613179565b9050600b8181548110610f23577f4e487b7100000000000000000000000000000000000000000000000000000000600052603260045260246000fd5b906000526020600020018054610f38906130cd565b80601f0160208091040260200160405190810160405280929190818152602001828054610f64906130cd565b8015610fb15780601f10610f8657610100808354040283529160200191610fb1565b820191906000526020600020905b815481529060010190602001808311610f9457829003601f168201915b5050505050915050919050565b6000600560008473ffffffffffffffffffffffffffffffffffffffff1673ffffffffffffffffffffffffffffffffffffffff16815260200190815260200160002060008373ffffffffffffffffffffffffffffffffffffffff1673ffffffffffffffffffffffffffffffffffffffff16815260200190815260200160002060009054906101000a900460ff16905092915050565b6110e8816040516024016110669190612bd9565b6040516020818303038152906040527f41304fac000000000000000000000000000000000000000000000000000000007bffffffffffffffffffffffffffffffffffffffffffffffffffffffff19166020820180517bffffffffffffffffffffffffffffffffffffffffffffffffffffffff8381831617835250505050611d41565b50565b60007f01ffc9a7000000000000000000000000000000000000000000000000000000007bffffffffffffffffffffffffffffffffffffffffffffffffffffffff1916827bffffffffffffffffffffffffffffffffffffffffffffffffffffffff1916149050919050565b60008073ffffffffffffffffffffffffffffffffffffffff166002600084815260200190815260200160002060009054906101000a900473ffffffffffffffffffffffffffffffffffffffff1673ffffffffffffffffffffffffffffffffffffffff1614159050919050565b600033905090565b816004600083815260200190815260200160002060006101000a81548173ffffffffffffffffffffffffffffffffffffffff021916908373ffffffffffffffffffffffffffffffffffffffff160217905550808273ffffffffffffffffffffffffffffffffffffffff1661123c83610841565b73ffffffffffffffffffffffffffffffffffffffff167f8c5be1e5ebec7d5bd14f71427d1e84f3dd0314c0f7b2291e5b200ac8c7c3b92560405160405180910390a45050565b600061128d82611155565b6112cc576040517f08c379a00000000000000000000000000000000000000000000000000000000081526004016112c390612cd9565b60405180910390fd5b60006112d783610841565b90508073ffffffffffffffffffffffffffffffffffffffff168473ffffffffffffffffffffffffffffffffffffffff16148061131957506113188185610fbe565b5b8061135757508373ffffffffffffffffffffffffffffffffffffffff1661133f84610506565b73ffffffffffffffffffffffffffffffffffffffff16145b91505092915050565b8273ffffffffffffffffffffffffffffffffffffffff1661138082610841565b73ffffffffffffffffffffffffffffffffffffffff16146113d6576040517f08c379a00000000000000000000000000000000000000000000000000000000081526004016113cd90612c59565b60405180910390fd5b600073ffffffffffffffffffffffffffffffffffffffff168273ffffffffffffffffffffffffffffffffffffffff161415611446576040517f08c379a000000000000000000000000000000000000000000000000000000000815260040161143d90612c99565b60405180910390fd5b611451838383611d6a565b61145c6000826111c9565b6001600360008573ffffffffffffffffffffffffffffffffffffffff1673ffffffffffffffffffffffffffffffffffffffff16815260200190815260200160002060008282546114ac9190612fe3565b925050819055506001600360008473ffffffffffffffffffffffffffffffffffffffff1673ffffffffffffffffffffffffffffffffffffffff16815260200190815260200160002060008282546115039190612f02565b92505081905550816002600083815260200190815260200160002060006101000a81548173ffffffffffffffffffffffffffffffffffffffff021916908373ffffffffffffffffffffffffffffffffffffffff160217905550808273ffffffffffffffffffffffffffffffffffffffff168473ffffffffffffffffffffffffffffffffffffffff167fddf252ad1be2c89b69c2b068fc378daa952ba7f163c4a11628f55a4df523b3ef60405160405180910390a46115c2838383611d6f565b505050565b6060600082141561160f576040518060400160405280600181526020017f3000000000000000000000000000000000000000000000000000000000000000815250905061176f565b600082905060005b6000821461164157808061162a90613130565b915050600a8261163a9190612f58565b9150611617565b60008167ffffffffffffffff811115611683577f4e487b7100000000000000000000000000000000000000000000000000000000600052604160045260246000fd5b6040519080825280601f01601f1916602001820160405280156116b55781602001600182028036833780820191505090505b5090505b60008514611768576001826116ce9190612fe3565b9150600a856116dd9190613179565b60306116e99190612f02565b60f81b818381518110611725577f4e487b7100000000000000000000000000000000000000000000000000000000600052603260045260246000fd5b60200101907effffffffffffffffffffffffffffffffffffffffffffffffffffffffffffff1916908160001a905350600a856117619190612f58565b94506116b9565b8093505050505b919050565b60008160405160200161178791906129b3565b6040516020818303038152906040528051906020012060001c9050919050565b8173ffffffffffffffffffffffffffffffffffffffff168373ffffffffffffffffffffffffffffffffffffffff161415611816576040517f08c379a000000000000000000000000000000000000000000000000000000000815260040161180d90612cb9565b60405180910390fd5b80600560008573ffffffffffffffffffffffffffffffffffffffff1673ffffffffffffffffffffffffffffffffffffffff16815260200190815260200160002060008473ffffffffffffffffffffffffffffffffffffffff1673ffffffffffffffffffffffffffffffffffffffff16815260200190815260200160002060006101000a81548160ff0219169083151502179055508173ffffffffffffffffffffffffffffffffffffffff168373ffffffffffffffffffffffffffffffffffffffff167f17307eab39ab6107e8899845ad3d59bd9653f200f220920489ca2b5937696c31836040516119079190612bbe565b60405180910390a3505050565b61191f848484611360565b61192b84848484611d74565b61196a576040517f08c379a000000000000000000000000000000000000000000000000000000000815260040161196190612c39565b60405180910390fd5b50505050565b606060405180602001604052806000815250905090565b606061199282611155565b6119d1576040517f08c379a00000000000000000000000000000000000000000000000000000000081526004016119c890612dd9565b60405180910390fd5b60006119db611970565b905060008151116119fb5760405180602001604052806000815250611a26565b80611a05846115c7565b604051602001611a169291906129ca565b6040516020818303038152906040525b915050919050565b600081600001549050919050565b60606000825190506000811415611a655760405180602001604052806000815250915050611bf5565b60006003600283611a769190612f02565b611a809190612f58565b6004611a8c9190612f89565b90506000602082611a9d9190612f02565b67ffffffffffffffff811115611adc577f4e487b7100000000000000000000000000000000000000000000000000000000600052604160045260246000fd5b6040519080825280601f01601f191660200182016040528015611b0e5781602001600182028036833780820191505090505b509050600060405180606001604052806040815260200161395b604091399050600181016020830160005b86811015611bb25760038101905062ffffff818a015116603f8160121c168401518060081b905060ff603f83600c1c1686015116810190508060081b905060ff603f8360061c1686015116810190508060081b905060ff603f831686015116810190508060e01b90508084526004840193505050611b39565b506003860660018114611bcc5760028114611bdc57611be7565b613d3d60f01b6002830352611be7565b603d60f81b60018303525b508484525050819450505050505b919050565b611c14828260405180602001604052806000815250611f0b565b5050565b611c2182611155565b611c60576040517f08c379a0000000000000000000000000000000000000000000000000000000008152600401611c5790612d59565b60405180910390fd5b80600660008481526020019081526020016000209080519060200190611c87929190612163565b505050565b611d26838383604051602401611ca493929190612bfb565b6040516020818303038152906040527fe3849f79000000000000000000000000000000000000000000000000000000007bffffffffffffffffffffffffffffffffffffffffffffffffffffffff19166020820180517bffffffffffffffffffffffffffffffffffffffffffffffffffffffff8381831617835250505050611d41565b505050565b6001816000016000828254019250508190555050565b60008151905060006a636f6e736f6c652e6c6f679050602083016000808483855afa5050505050565b505050565b505050565b6000611d958473ffffffffffffffffffffffffffffffffffffffff16611f66565b15611efe578373ffffffffffffffffffffffffffffffffffffffff1663150b7a02611dbe6111c1565b8786866040518563ffffffff1660e01b8152600401611de09493929190612b72565b602060405180830381600087803b158015611dfa57600080fd5b505af1925050508015611e2b57506040513d601f19601f82011682018060405250810190611e2891906124a7565b60015b611eae573d8060008114611e5b576040519150601f19603f3d011682016040523d82523d6000602084013e611e60565b606091505b50600081511415611ea6576040517f08c379a0000000000000000000000000000000000000000000000000000000008152600401611e9d90612c39565b60405180910390fd5b805181602001fd5b63150b7a0260e01b7bffffffffffffffffffffffffffffffffffffffffffffffffffffffff1916817bffffffffffffffffffffffffffffffffffffffffffffffffffffffff191614915050611f03565b600190505b949350505050565b611f158383611f89565b611f226000848484611d74565b611f61576040517f08c379a0000000000000000000000000000000000000000000000000000000008152600401611f5890612c39565b60405180910390fd5b505050565b6000808273ffffffffffffffffffffffffffffffffffffffff163b119050919050565b600073ffffffffffffffffffffffffffffffffffffffff168273ffffffffffffffffffffffffffffffffffffffff161415611ff9576040517f08c379a0000000000000000000000000000000000000000000000000000000008152600401611ff090612d79565b60405180910390fd5b61200281611155565b15612042576040517f08c379a000000000000000000000000000000000000000000000000000000000815260040161203990612c79565b60405180910390fd5b61204e60008383611d6a565b6001600360008473ffffffffffffffffffffffffffffffffffffffff1673ffffffffffffffffffffffffffffffffffffffff168152602001908152602001600020600082825461209e9190612f02565b92505081905550816002600083815260200190815260200160002060006101000a81548173ffffffffffffffffffffffffffffffffffffffff021916908373ffffffffffffffffffffffffffffffffffffffff160217905550808273ffffffffffffffffffffffffffffffffffffffff16600073ffffffffffffffffffffffffffffffffffffffff167fddf252ad1be2c89b69c2b068fc378daa952ba7f163c4a11628f55a4df523b3ef60405160405180910390a461215f60008383611d6f565b5050565b82805461216f906130cd565b90600052602060002090601f01602090048101928261219157600085556121d8565b82601f106121aa57805160ff19168380011785556121d8565b828001600101855582156121d8579182015b828111156121d75782518255916020019190600101906121bc565b5b5090506121e591906121e9565b5090565b5b808211156122025760008160009055506001016121ea565b5090565b600061221961221484612e79565b612e54565b90508281526020810184848401111561223157600080fd5b61223c84828561308b565b509392505050565b600081359050612253816138fe565b92915050565b60008135905061226881613915565b92915050565b60008135905061227d8161392c565b92915050565b6000815190506122928161392c565b92915050565b600082601f8301126122a957600080fd5b81356122b9848260208601612206565b91505092915050565b6000813590506122d181613943565b92915050565b6000602082840312156122e957600080fd5b60006122f784828501612244565b91505092915050565b6000806040838503121561231357600080fd5b600061232185828601612244565b925050602061233285828601612244565b9150509250929050565b60008060006060848603121561235157600080fd5b600061235f86828701612244565b935050602061237086828701612244565b9250506040612381868287016122c2565b9150509250925092565b600080600080608085870312156123a157600080fd5b60006123af87828801612244565b94505060206123c087828801612244565b93505060406123d1878288016122c2565b925050606085013567ffffffffffffffff8111156123ee57600080fd5b6123fa87828801612298565b91505092959194509250565b6000806040838503121561241957600080fd5b600061242785828601612244565b925050602061243885828601612259565b9150509250929050565b6000806040838503121561245557600080fd5b600061246385828601612244565b9250506020612474858286016122c2565b9150509250929050565b60006020828403121561249057600080fd5b600061249e8482850161226e565b91505092915050565b6000602082840312156124b957600080fd5b60006124c784828501612283565b91505092915050565b6000602082840312156124e257600080fd5b60006124f0848285016122c2565b91505092915050565b61250281613017565b82525050565b61251181613029565b82525050565b600061252282612ebf565b61252c8185612ed5565b935061253c81856020860161309a565b61254581613266565b840191505092915050565b600061255b82612eca565b6125658185612ee6565b935061257581856020860161309a565b61257e81613266565b840191505092915050565b600061259482612eca565b61259e8185612ef7565b93506125ae81856020860161309a565b80840191505092915050565b600081546125c7816130cd565b6125d18186612ef7565b945060018216600081146125ec57600181146125fd57612630565b60ff19831686528186019350612630565b61260685612eaa565b60005b8381101561262857815481890152600182019150602081019050612609565b838801955050505b50505092915050565b6000612646602583612ef7565b915061265182613277565b602582019050919050565b6000612669603283612ee6565b9150612674826132c6565b604082019050919050565b600061268c602583612ee6565b915061269782613315565b604082019050919050565b60006126af601c83612ee6565b91506126ba82613364565b602082019050919050565b60006126d2600a83612ef7565b91506126dd8261338d565b600a82019050919050565b60006126f5602483612ee6565b9150612700826133b6565b604082019050919050565b6000612718601983612ee6565b915061272382613405565b602082019050919050565b600061273b606383612ef7565b91506127468261342e565b606382019050919050565b600061275e600b83612ef7565b9150612769826134c9565b600b82019050919050565b6000612781602c83612ee6565b915061278c826134f2565b604082019050919050565b60006127a4600d83612ef7565b91506127af82613541565b600d82019050919050565b60006127c7603883612ee6565b91506127d28261356a565b604082019050919050565b60006127ea602a83612ee6565b91506127f5826135b9565b604082019050919050565b600061280d602983612ee6565b915061281882613608565b604082019050919050565b6000612830602e83612ee6565b915061283b82613657565b604082019050919050565b6000612853600283612ef7565b915061285e826136a6565b600282019050919050565b6000612876602083612ee6565b9150612881826136cf565b602082019050919050565b6000612899603183612ee6565b91506128a4826136f8565b604082019050919050565b60006128bc602c83612ee6565b91506128c782613747565b604082019050919050565b60006128df602f83612ee6565b91506128ea82613796565b604082019050919050565b6000612902600a83612ef7565b915061290d826137e5565b600a82019050919050565b6000612925602183612ee6565b91506129308261380e565b604082019050919050565b6000612948600a83612ef7565b91506129538261385d565b600a82019050919050565b600061296b601d83612ef7565b915061297682613886565b601d82019050919050565b600061298e603183612ee6565b9150612999826138af565b604082019050919050565b6129ad81613081565b82525050565b60006129bf8284612589565b915081905092915050565b60006129d68285612589565b91506129e28284612589565b91508190509392505050565b60006129fa8286612589565b9150612a068285612589565b9150612a128284612589565b9150819050949350505050565b6000612a2b82876125ba565b9150612a378286612589565b9150612a438285612589565b9150612a4f8284612589565b9150612a5a82612797565b915081905095945050505050565b6000612a7382612639565b9150612a7f8284612589565b915081905092915050565b6000612a95826126c5565b9150612aa18284612589565b915081905092915050565b6000612ab782612751565b9150612ac38284612589565b915081905092915050565b6000612ad9826128f5565b9150612ae58285612589565b9150612af08261272e565b9150612afc8284612589565b9150612b0782612846565b91508190509392505050565b6000612b1e8261293b565b9150612b2a8284612589565b915081905092915050565b6000612b408261295e565b9150612b4c8284612589565b915081905092915050565b6000602082019050612b6c60008301846124f9565b92915050565b6000608082019050612b8760008301876124f9565b612b9460208301866124f9565b612ba160408301856129a4565b8181036060830152612bb38184612517565b905095945050505050565b6000602082019050612bd36000830184612508565b92915050565b60006020820190508181036000830152612bf38184612550565b905092915050565b60006060820190508181036000830152612c158186612550565b9050612c2460208301856129a4565b612c3160408301846124f9565b949350505050565b60006020820190508181036000830152612c528161265c565b9050919050565b60006020820190508181036000830152612c728161267f565b9050919050565b60006020820190508181036000830152612c92816126a2565b9050919050565b60006020820190508181036000830152612cb2816126e8565b9050919050565b60006020820190508181036000830152612cd28161270b565b9050919050565b60006020820190508181036000830152612cf281612774565b9050919050565b60006020820190508181036000830152612d12816127ba565b9050919050565b60006020820190508181036000830152612d32816127dd565b9050919050565b60006020820190508181036000830152612d5281612800565b9050919050565b60006020820190508181036000830152612d7281612823565b9050919050565b60006020820190508181036000830152612d9281612869565b9050919050565b60006020820190508181036000830152612db28161288c565b9050919050565b60006020820190508181036000830152612dd2816128af565b9050919050565b60006020820190508181036000830152612df2816128d2565b9050919050565b60006020820190508181036000830152612e1281612918565b9050919050565b60006020820190508181036000830152612e3281612981565b9050919050565b6000602082019050612e4e60008301846129a4565b92915050565b6000612e5e612e6f565b9050612e6a82826130ff565b919050565b6000604051905090565b600067ffffffffffffffff821115612e9457612e93613237565b5b612e9d82613266565b9050602081019050919050565b60008190508160005260206000209050919050565b600081519050919050565b600081519050919050565b600082825260208201905092915050565b600082825260208201905092915050565b600081905092915050565b6000612f0d82613081565b9150612f1883613081565b9250827fffffffffffffffffffffffffffffffffffffffffffffffffffffffffffffffff03821115612f4d57612f4c6131aa565b5b828201905092915050565b6000612f6382613081565b9150612f6e83613081565b925082612f7e57612f7d6131d9565b5b828204905092915050565b6000612f9482613081565b9150612f9f83613081565b9250817fffffffffffffffffffffffffffffffffffffffffffffffffffffffffffffffff0483118215151615612fd857612fd76131aa565b5b828202905092915050565b6000612fee82613081565b9150612ff983613081565b92508282101561300c5761300b6131aa565b5b828203905092915050565b600061302282613061565b9050919050565b60008115159050919050565b60007fffffffff0000000000000000000000000000000000000000000000000000000082169050919050565b600073ffffffffffffffffffffffffffffffffffffffff82169050919050565b6000819050919050565b82818337600083830152505050565b60005b838110156130b857808201518184015260208101905061309d565b838111156130c7576000848401525b50505050565b600060028204905060018216806130e557607f821691505b602082108114156130f9576130f8613208565b5b50919050565b61310882613266565b810181811067ffffffffffffffff8211171561312757613126613237565b5b80604052505050565b600061313b82613081565b91507fffffffffffffffffffffffffffffffffffffffffffffffffffffffffffffffff82141561316e5761316d6131aa565b5b600182019050919050565b600061318482613081565b915061318f83613081565b92508261319f5761319e6131d9565b5b828206905092915050565b7f4e487b7100000000000000000000000000000000000000000000000000000000600052601160045260246000fd5b7f4e487b7100000000000000000000000000000000000000000000000000000000600052601260045260246000fd5b7f4e487b7100000000000000000000000000000000000000000000000000000000600052602260045260246000fd5b7f4e487b7100000000000000000000000000000000000000000000000000000000600052604160045260246000fd5b6000601f19601f8301169050919050565b7f68747470733a2f2f6e6674707265766965772e30786465762e636f6465732f3f60008201527f636f64653d000000000000000000000000000000000000000000000000000000602082015250565b7f4552433732313a207472616e7366657220746f206e6f6e20455243373231526560008201527f63656976657220696d706c656d656e7465720000000000000000000000000000602082015250565b7f4552433732313a207472616e736665722066726f6d20696e636f72726563742060008201527f6f776e6572000000000000000000000000000000000000000000000000000000602082015250565b7f4552433732313a20746f6b656e20616c7265616479206d696e74656400000000600082015250565b7f54484952445f574f524400000000000000000000000000000000000000000000600082015250565b7f4552433732313a207472616e7366657220746f20746865207a65726f2061646460008201527f7265737300000000000000000000000000000000000000000000000000000000602082015250565b7f4552433732313a20617070726f766520746f2063616c6c657200000000000000600082015250565b7f222c20226465736372697074696f6e223a20224120686967686c79206163636c60008201527f61696d656420636f6c6c656374696f6e206f6620737175617265732e222c202260208201527f696d616765223a2022646174613a696d6167652f7376672b786d6c3b6261736560408201527f36342c0000000000000000000000000000000000000000000000000000000000606082015250565b7f5345434f4e445f574f5244000000000000000000000000000000000000000000600082015250565b7f4552433732313a206f70657261746f7220717565727920666f72206e6f6e657860008201527f697374656e7420746f6b656e0000000000000000000000000000000000000000602082015250565b7f3c2f746578743e3c2f7376673e00000000000000000000000000000000000000600082015250565b7f4552433732313a20617070726f76652063616c6c6572206973206e6f74206f7760008201527f6e6572206e6f7220617070726f76656420666f7220616c6c0000000000000000602082015250565b7f4552433732313a2062616c616e636520717565727920666f7220746865207a6560008201527f726f206164647265737300000000000000000000000000000000000000000000602082015250565b7f4552433732313a206f776e657220717565727920666f72206e6f6e657869737460008201527f656e7420746f6b656e0000000000000000000000000000000000000000000000602082015250565b7f45524337323155524953746f726167653a2055524920736574206f66206e6f6e60008201527f6578697374656e7420746f6b656e000000000000000000000000000000000000602082015250565b7f227d000000000000000000000000000000000000000000000000000000000000600082015250565b7f4552433732313a206d696e7420746f20746865207a65726f2061646472657373600082015250565b7f45524337323155524953746f726167653a2055524920717565727920666f722060008201527f6e6f6e6578697374656e7420746f6b656e000000000000000000000000000000602082015250565b7f4552433732313a20617070726f76656420717565727920666f72206e6f6e657860008201527f697374656e7420746f6b656e0000000000000000000000000000000000000000602082015250565b7f4552433732314d657461646174613a2055524920717565727920666f72206e6f60008201527f6e6578697374656e7420746f6b656e0000000000000000000000000000000000602082015250565b7f7b226e616d65223a202200000000000000000000000000000000000000000000600082015250565b7f4552433732313a20617070726f76616c20746f2063757272656e74206f776e6560008201527f7200000000000000000000000000000000000000000000000000000000000000602082015250565b7f46495253545f574f524400000000000000000000000000000000000000000000600082015250565b7f646174613a6170706c69636174696f6e2f6a736f6e3b6261736536342c000000600082015250565b7f4552433732313a207472616e736665722063616c6c6572206973206e6f74206f60008201527f776e6572206e6f7220617070726f766564000000000000000000000000000000602082015250565b61390781613017565b811461391257600080fd5b50565b61391e81613029565b811461392957600080fd5b50565b61393581613035565b811461394057600080fd5b50565b61394c81613081565b811461395757600080fd5b5056fe4142434445464748494a4b4c4d4e4f505152535455565758595a6162636465666768696a6b6c6d6e6f707172737475767778797a303132333435363738392b2fa264697066735822122067d2473f4ca6bbb7f10095811ce1c6c7bfe3737d9803f5bb681bf078292cd71c64736f6c634300080100333c73766720786d6c6e733d27687474703a2f2f7777772e77332e6f72672f323030302f73766727207072657365727665417370656374526174696f3d27784d696e594d696e206d656574272076696577426f783d273020302033353020333530273e3c7374796c653e2e62617365207b2066696c6c3a2077686974653b20666f6e742d66616d696c793a2073657269663b20666f6e742d73697a653a20323470783b207d3c2f7374796c653e3c726563742077696474683d273130302527206865696768743d2731303025272066696c6c3d27626c61636b27202f3e3c7465787420783d273530252720793d273530252720636c6173733d27626173652720646f6d696e616e742d626173656c696e653d276d6964646c652720746578742d616e63686f723d276d6964646c65273e",
  "linkReferences": {},
  "deployedLinkReferences": {}
}